:020000040800F2
:1000000000000120290A0008550800085B080008C4
:1000100061080008670800086D080008000000007B
:10002000000000000000000000000000730800084D
:1000300081080008000000008F0800089D080008E3
:10004000790A0008790A0008790A0008790A000884
:10005000790A0008790A0008790A0008790A000874
:10006000790A0008790A0008790A0008790A000864
:10007000790A0008790A0008790A0008790A000854
:10008000790A0008790A0008790A0008790A000844
:10009000A9080008790A0008790A0008790A000806
:1000A000790A0008790A0008790A0008790A000824
:1000B000790A0008790A0008790A0008790A000814
:1000C000790A0008790A0008790A0008790A000804
:1000D000790A0008790A0008790A0008790A0008F4
:1000E000790A0008790A0008790A0008790A0008E4
:1000F000790A0008790A0008790A0008790A0008D4
:10010000790A00080000000000000000790A0008D9
:10011000790A0008790A0008790A0008790A0008B3
:10012000790A0008790A0008790A0008790A0008A3
:10013000790A0008790A00080000000000000000A9
:10014000790A0008790A0008790A0008000000000E
:10015000000000000000000000000000000000009F
:10016000790A0008790A0008790A0008790A000863
:10017000790A0008790A0008790A0008790A000853
:10018000790A0008790A0008000000000000000059
:04019000790A0008E0
:1001A00010B5054C237833B9044B13B10448AFF3B1
:1001B00000800123237010BD2802002000000000F1
:1001C000487D000808B5034B1BB103490348AFF352
:1001D000008008BD000000002C020020487D0008BF
:1001E000034613F8012B002AFBD1181A0138704777
:1001F00001F0FF01102A2BDB10F0070F08D010F8D8
:10020000013B013A8B422DD010F0070F42B3F6D1DB
:10021000F0B441EA012141EA014122F007047FF0F4
:1002200000070023F0E80256083C85EA010586EA4B
:10023000010685FA47F5A3FA87F586FA47F6A5FA87
:1002400087F68EB9EED1F0BC01F0FF0102F0070293
:1002500032B110F8013B013A83EA010313B1F8D13E
:100260000020704701387047002D06BF354603381F
:10027000073815F0010F07D1013015F4807F02BF58
:10028000013015F4C03F0130F0BC0138704700BFA9
:1002900080B500AF00F0F2FB00F012F800F03AF980
:1002A00000F0BCF800F010F900F078F800F0DCF88D
:1002B0004FF42F7000F048FC05F0E6FFF8E700006F
:1002C00080B5A6B000AF07F17003282200211846C0
:1002D00006F094FB07F15C0300221A605A609A60F2
:1002E000DA601A613B1D58220021184606F086FB91
:1002F0000B233B674FF4A0237B670123FB6710238D
:10030000C7F880300123C7F884300223C7F888304B
:100310004FF48033C7F88C304FF4E013C7F89030B7
:100320000023C7F8943007F17003184602F02EFD41
:100330000346002B01D000F08FF90F23FB65022349
:100340003B6600237B664FF48063BB660023FB663D
:1003500007F15C030221184603F02EFC0346002B34
:1003600001D000F079F90C4B7B6000237B61002306
:100370003B624FF40073BB600023BB653B1D184616
:1003800003F050FE0346002B01D000F065F900BFDA
:100390009837BD4680BD00BF2400030080B500AF84
:1003A0001B4B1C4A1A601A4B1B4A5A60184BE62218
:1003B0009A60174B0122DA60154B00221A61144B28
:1003C00000225A61124B00229A61114B0022DA611D
:1003D0000F4B00221A620E4800F08EFE0346002BDF
:1003E00001D000F039F90021094801F05FFB034614
:1003F000002B01D000F030F90021054801F0A1FBED
:100400000346002B01D000F027F900BF80BD00BFDC
:10041000D4020020005400400E09002080B500AF37
:100420000F4B104A1A600E4B00225A600C4B7F2271
:100430009A600B4BFF22DA60094B00221A61084BCD
:1004400000225A61064B00229A61054804F008F820
:100450000346002B01D000F0FFF800BF80BD00BFB5
:10046000200300200028004080B500AF144B154A3F
:100470001A60134B4FF4E1325A60114B00229A601C
:100480000F4B0022DA600E4B00221A610C4B0C223B
:100490005A610B4B00229A61094B0022DA61084B2A
:1004A00000221A62064B00225A62054804F0BDF889
:1004B0000346002B01D000F0CFF800BF80BD00BF85
:1004C000500200200048004080B500AF0F4B104A9A
:1004D0001A600E4B08225A600C4B02229A600B4B9A
:1004E00002221A61094B00229A61084B0022DA614C
:1004F000064B00221A62054801F06FFB0346002BF1
:1005000001D000F0A9F800BF80BD00BF8C0300201F
:10051000005C004080B58CB000AF07F11C030022E6
:100520001A605A609A60DA601A61464B5B69454A04
:1005300043F400235361434B5B6903F40023BB6125
:10054000BB69404B5B693F4A43F4800353613D4BB9
:100550005B6903F480037B617B693A4B5B69394AD1
:1005600043F480235361374B5B6903F480233B6181
:100570003B69344B5B69334A43F480135361314B1D
:100580005B6903F48013FB60FB682E4B5B692D4AAB
:1005900043F4000353612B4B5B6903F40003BB601E
:1005A000BB68284B5B69274A43F400335361254BF2
:1005B0005B6903F400337B607B68002244F28101B5
:1005C000214800F081FD00224021204800F07CFD00
:1005D0004FF40053FB611E4B3B6200237B6207F12B
:1005E0001C0319461B4800F0E5FB44F28103FB6144
:1005F00001233B6200237B620023BB6207F11C03E3
:100600001946114800F0D6FB4023FB6101233B62F1
:1006100000237B620023BB6207F11C0319460B48D1
:1006200000F0C8FB8023FB6100233B6200237B6258
:1006300007F11C031946054800F0BCFB00BF30372A
:10064000BD4680BD0010024000040048001800486C
:10065000000011100008004880B400AF72B600BF5F
:10066000FEE7000080B483B000AF0F4B9B690E4AD9
:1006700043F0010393610C4B9B6903F001037B6022
:100680007B68094BDB69084A43F08053D361064B12
:10069000DB6903F080533B603B6800BF0C37BD460D
:1006A0005DF8047B704700BF0010024080B58AB03F
:1006B00000AF786007F1140300221A605A609A6054
:1006C000DA601A617B681B68174A934228D1174B7E
:1006D0005B69164A43F480235361144B5B6903F44E
:1006E00080233B613B694FF440737B611223BB6104
:1006F0000123FB6103233B6204237B6207F11403A4
:1007000019460B4800F056FB084BDB69074A43F4D7
:100710000013D361054BDB6903F40013FB60FB6836
:1007200000BF2837BD4680BD005400400010024085
:100730000004004880B485B000AF78607B681B6817
:100740000D4A934211D14FF40043FB60FB6893FACA
:10075000A3F3BB60BB68B3FA83F3DBB21A46074B63
:1007600013449B001A460123136000BF1437BD4693
:100770005DF8047B704700BF0028004000819010A6
:1007800080B58AB000AF786007F1140300221A60C8
:100790005A609A60DA601A617B681B68174A934254
:1007A00028D1174BDB69164A43F48023D361144BDD
:1007B000DB6903F480233B613B69114B5B69104AA1
:1007C00043F4801353610E4B5B6903F48013FB60A9
:1007D000FB684FF440737B610223BB610023FB6124
:1007E00003233B6207237B6207F114031946054884
:1007F00000F0E0FA00BF2837BD4680BD0048004049
:1008000000100240000C004880B584B000AF786052
:100810007B681B680D4A934213D10D4BDB690C4A70
:1008200043F40003D3610A4BDB6903F40003FB606C
:10083000FB6800220021142000F085FA142000F04B
:100840009EFA00BF1037BD4680BD00BF005C00406F
:100850000010024080B400AFFEE780B400AFFEE7B6
:1008600080B400AFFEE780B400AFFEE780B400AF15
:10087000FEE780B400AF00BFBD465DF8047B704763
:1008800080B400AF00BFBD465DF8047B704780B404
:1008900000AF00BFBD465DF8047B704780B500AF78
:1008A00000F032F900BF80BD80B500AF024801F012
:1008B00072FA00BF80BD00BF8C03002080B586B0F7
:1008C00000AFF860B9607A6000237B610AE0AFF3A3
:1008D00000800146BB685A1CBA60CAB21A707B69B4
:1008E00001337B617A697B689A42F0DB7B6818464A
:1008F0001837BD4680BD80B586B000AFF860B960DE
:100900007A6000237B6109E0BB685A1CBA601B78DF
:100910001846AFF300807B6901337B617A697B689D
:100920009A42F1DB7B6818461837BD4680BD80B41B
:1009300083B000AF78604FF0FF3318460C37BD46E8
:100940005DF8047B704780B483B000AF7860396095
:100950003B684FF400525A60002318460C37BD46DE
:100960005DF8047B704780B483B000AF78600123EA
:1009700018460C37BD465DF8047B704780B485B0DF
:1009800000AFF860B9607A60002318461437BD469E
:100990005DF8047B7047000080B586B000AF7860DA
:1009A000144A154BD31A7B617B693B61134B1B685F
:1009B000002B02D1114B124A1A60104B1A687B6847
:1009C00013443A699A4207D205F0EEFF03460C221F
:1009D0001A604FF0FF3309E0084B1B68FB60074BC0
:1009E0001A687B681344054A1360FB681846183779
:1009F000BD4680BD0000012000040000440200202C
:100A0000D006002080B400AF064BD3F88830054AEA
:100A100043F47003C2F8883000BFBD465DF8047B24
:100A2000704700BF00ED00E0DFF834D00D480E49FC
:100A30000E4A002302E0D458C4500433C4188C4238
:100A4000F9D30B4A0B4C002301E013600432A2429D
:100A5000FBD3FFF7D7FF05F0ADFFFFF719FCFEE76B
:100A60000000012000000020280200206080000813
:100A700028020020D0060020FEE7000080B500AF6D
:100A8000084B1B68074A43F010031360032000F073
:100A90004FF9002000F008F8FFF7E4FD00231846A6
:100AA00080BD00BF0020024080B582B000AF7860FA
:100AB000124B1A68124B1B7819464FF47A73B3FB2A
:100AC000F1F3B2FBF3F3184600F067F90346002B8D
:100AD00001D001230EE07B680F2B0AD80022796831
:100AE0004FF0FF3000F02FF9064A7B6813600023B7
:100AF00000E0012318460837BD4680BD00000020F5
:100B0000080000200400002080B400AF064B1B78D2
:100B10001A46064B1B681344044A136000BFBD46C7
:100B20005DF8047B704700BF080000207C060020B1
:100B300080B400AF034B1B681846BD465DF8047BCC
:100B4000704700BF7C06002080B584B000AF78609D
:100B5000FFF7EEFFB8607B68FB60FB68B3F1FF3F17
:100B600005D00A4B1B781A46FB681344FB6000BF94
:100B7000FFF7DEFF0246BB68D31AFA689A42F7D83D
:100B800000BF00BF1037BD4680BD00BF0800002079
:100B900080B485B000AF78607B6803F00703FB602A
:100BA0000C4BDB68BB60BA684FF6FF031340BB60B9
:100BB000FB681A02BB68134343F0BF6343F400337E
:100BC000BB60044ABB68D36000BF1437BD465DF804
:100BD000047B704700ED00E080B400AF044BDB689D
:100BE0001B0A03F007031846BD465DF8047B7047F7
:100BF00000ED00E080B483B000AF0346FB7197F9CD
:100C00000730002B0BDBFB7903F01F02074997F934
:100C100007305B09012000FA02F241F8232000BFEF
:100C20000C37BD465DF8047B704700BF00E100E073
:100C300080B483B000AF03463960FB7197F9073089
:100C4000002B0ADB3B68DAB20C4997F90730120136
:100C5000D2B20B4483F800230AE03B68DAB20849B9
:100C6000FB7903F00F03043B1201D2B20B441A7656
:100C700000BF0C37BD465DF8047B704700E100E023
:100C800000ED00E080B489B000AFF860B9607A6030
:100C9000FB6803F00703FB61FB69C3F10703042B47
:100CA00028BF0423BB61FB690433062B02D9FB690F
:100CB000033B00E000237B614FF0FF32BB6902FA87
:100CC00003F3DA43BB681A407B699A404FF0FF3167
:100CD0007B6901FA03F3D9437B680B401343184641
:100CE0002437BD465DF8047B7047000080B582B0B4
:100CF00000AF78607B68013BB3F1807F01D30123B3
:100D00000FE00A4A7B68013B53600F214FF0FF3030
:100D1000FFF78EFF054B00229A60044B07221A60F2
:100D2000002318460837BD4680BD00BF10E000E034
:100D300080B582B000AF78607868FFF729FF00BF08
:100D40000837BD4680BD80B586B000AF0346B960A8
:100D50007A60FB7300237B61FFF73EFF78617A685E
:100D6000B9687869FFF78EFF024697F90F30114690
:100D70001846FFF75DFF00BF1837BD4680BD80B540
:100D800082B000AF0346FB7197F907301846FFF7B2
:100D900031FF00BF0837BD4680BD80B582B000AFCF
:100DA00078607868FFF7A2FF034618460837BD460B
:100DB00080BD000080B487B000AF78603960002348
:100DC0007B6160E13B681A6801217B6901FA03F3EA
:100DD0001340FB60FB68002B00F052813B685B68AE
:100DE000012B0BD03B685B68022B07D03B685B682C
:100DF000112B03D03B685B68122B30D17B689B685A
:100E00003B617B695B00032202FA03F3DB433A692F
:100E100013403B613B68DA687B695B0002FA03F3CD
:100E20003A6913433B617B683A699A607B685B6807
:100E30003B6101227B6902FA03F3DB433A69134009
:100E40003B613B685B681B0903F001027B6902FAA6
:100E500003F33A6913433B617B683A695A607B68E4
:100E6000DB683B617B695B00032202FA03F3DB432F
:100E70003A6913403B613B689A687B695B0002FA00
:100E800003F33A6913433B617B683A69DA603B6874
:100E90005B68022B03D03B685B68122B23D17B6914
:100EA000DA087B68083253F822303B617B6903F033
:100EB00007039B000F2202FA03F3DB433A69134056
:100EC0003B613B681A697B6903F007039B0002FAE8
:100ED00003F33A6913433B617B69DA087B680832A4
:100EE000396943F822107B681B683B617B695B00B2
:100EF000032202FA03F3DB433A6913403B613B6888
:100F00005B6803F003027B695B0002FA03F33A6952
:100F100013433B617B683A691A603B685B6803F086
:100F20008053002B00F0AC805E4B9B695D4A43F020
:100F3000010393615B4B9B6903F00103BB60BB68DA
:100F4000594A7B699B08023352F823303B617B6925
:100F500003F003039B000F2202FA03F3DB433A6919
:100F600013403B617B68B3F1904F25D07B684F4ABB
:100F700093421FD07B684E4A934219D07B684D4AFA
:100F8000934213D07B684C4A93420DD07B684B4A06
:100F9000934207D07B684A4A934201D106230CE072
:100FA00007230AE0052308E0042306E0032304E006
:100FB000022302E0012300E000237A6902F0030229
:100FC000920093403A6913433B6137497B699B0820
:100FD00002333A6941F823203A4B1B683B61FB68B6
:100FE000DB433A6913403B613B685B6803F4803341
:100FF000002B03D03A69FB6813433B61314A3B69DC
:101000001360304B5B683B61FB68DB433A6913401C
:101010003B613B685B6803F40033002B03D03A6903
:10102000FB6813433B61274A3B695360254B9B6830
:101030003B61FB68DB433A6913403B613B685B689B
:1010400003F48013002B03D03A69FB6813433B6120
:101050001C4A3B6993601B4BDB683B61FB68DB43CD
:101060003A6913403B613B685B6803F40013002B53
:1010700003D03A69FB6813433B61124A3B69D36072
:101080007B6901337B613B681A687B6922FA03F351
:10109000002B7FF497AE00BF00BF1C37BD465DF844
:1010A000047B70470010024000000140000400482B
:1010B00000080048000C00480010004800140048D8
:1010C000001800480004014080B483B000AF78608D
:1010D0000B467B8013467B707B78002B03D07A888D
:1010E0007B689A6102E07A887B689A6200BF0C375D
:1010F000BD465DF8047B704780B582B000AF786074
:101100007B68002B01D1012381E07B6893F841309B
:10111000DBB2002B06D17B68002283F84020786880
:10112000FFF7C4FA7B68242283F841207B681B68A0
:101130001A687B681B6822F001021A607B685A6893
:101140007B681B6822F070621A617B681B689A6872
:101150007B681B6822F400429A607B68DB68012B85
:1011600007D17B689A687B681B6842F400429A60EA
:1011700006E07B689A687B681B6842F404429A60C8
:101180007B68DB68022B04D17B681B684FF400622C
:101190005A607B681B685B687A68126843F000736A
:1011A00043F4004353607B681B68DA687B681B6804
:1011B00022F40042DA607B681A697B685B6942EA64
:1011C00003017B689B691A027B681B680A43DA602B
:1011D0007B68D9697B681A6A7B681B680A431A6056
:1011E0007B681B681A687B681B6842F001021A6002
:1011F0007B6800225A647B68202283F841207B6848
:1012000000221A637B68002283F8422000231846DC
:101210000837BD4680BD000080B588B002AFF860D9
:10122000084611461A4603467B810B463B8113460E
:10123000FB80FB6893F84130DBB2202B40F0F98053
:101240003B6A002B02D0BB8C002B05D1FB684FF40E
:1012500000725A640123EDE0FB6893F84030012BE3
:1012600001D10223E6E0FB68012283F84020FFF76A
:101270005FFC78617B690093192301224FF40041E0
:10128000F86800F0C3FA0346002B01D00123D1E037
:10129000FB68212283F84120FB68402283F842202A
:1012A000FB6800225A64FB683A6A5A62FB68BA8C8F
:1012B0005A85FB6800225A63F8883A8979897B69E4
:1012C0000193BB6A00930346F86800F0D3F9034624
:1012D000002B05D0FB68002283F840200123A9E001
:1012E000FB685B8D9BB2FF2B0ED9FB68FF221A8532
:1012F000FB681B8DDAB27989002300934FF080736D
:10130000F86800F0A5FB0FE0FB685B8D9AB2FB6804
:101310001A85FB681B8DDAB27989002300934FF0A0
:101320000073F86800F094FB7A69B96AF86800F015
:10133000ADFA0346002B01D001237BE0FB685B6A1A
:101340001A78FB681B689A62FB685B6A5A1CFB6828
:101350005A62FB685B8D9BB2013B9AB2FB685A856F
:10136000FB681B8D013B9AB2FB681A85FB685B8D9D
:101370009BB2002B34D0FB681B8D002B30D17B69D6
:101380000093BB6A00228021F86800F03FFA034610
:10139000002B01D001234DE0FB685B8D9BB2FF2B3E
:1013A0000ED9FB68FF221A85FB681B8DDAB279899A
:1013B000002300934FF08073F86800F049FB0FE0C2
:1013C000FB685B8D9AB2FB681A85FB681B8DDAB2ED
:1013D0007989002300934FF00073F86800F038FB20
:1013E000FB685B8D9BB2002B9ED17A69B96AF86865
:1013F00000F08CFA0346002B01D001231AE0FB68B1
:101400001B682022DA61FB681B685968FB681A6850
:101410000A4B0B405360FB68202283F84120FB6895
:10142000002283F84220FB68002283F8402000233A
:1014300000E0022318461837BD4680BD00E800FED4
:1014400080B588B002AFF860084611461A460346D8
:101450007B810B463B811346FB80FB6893F8413050
:10146000DBB2202B40F0FD803B6A002B02D0BB8C0E
:10147000002B05D1FB684FF400725A640123F1E0A0
:10148000FB6893F84030012B01D10223EAE0FB68AE
:10149000012283F84020FFF74BFB78617B690093C2
:1014A000192301224FF40041F86800F0AFF9034618
:1014B000002B01D00123D5E0FB68222283F84120D4
:1014C000FB68402283F84220FB6800225A64FB68D4
:1014D0003A6A5A62FB68BA8C5A85FB6800225A63E2
:1014E000F8883A8979897B690193BB6A009303463E
:1014F000F86800F013F90346002B05D0FB680022C2
:1015000083F840200123ADE0FB685B8D9BB2FF2B8D
:101510000ED9FB68FF221A85FB681B8DDAB2798928
:10152000524B00934FF08073F86800F091FA0FE08F
:10153000FB685B8D9AB2FB681A85FB681B8DDAB27B
:1015400079894A4B00934FF00073F86800F080FAF5
:101550007B690093BB6A00220421F86800F056F909
:101560000346002B01D001237CE0FB681B685A6A0C
:10157000FB685B6AD2B21A70FB685B6A5A1CFB6834
:101580005A62FB681B8D013B9AB2FB681A85FB68A7
:101590005B8D9BB2013B9AB2FB685A85FB685B8D01
:1015A0009BB2002B34D0FB681B8D002B30D17B69A4
:1015B0000093BB6A00228021F86800F027F90346F7
:1015C000002B01D001234DE0FB685B8D9BB2FF2B0C
:1015D0000ED9FB68FF221A85FB681B8DDAB2798968
:1015E000002300934FF08073F86800F031FA0FE0A9
:1015F000FB685B8D9AB2FB681A85FB681B8DDAB2BB
:101600007989002300934FF00073F86800F020FA06
:10161000FB685B8D9BB2002B9AD17A69B96AF86836
:1016200000F074F90346002B01D001231AE0FB6897
:101630001B682022DA61FB681B685968FB681A681E
:101640000B4B0B405360FB68202283F84120FB6862
:10165000002283F84220FB68002283F84020002308
:1016600000E0022318461837BD4680BD00240080E4
:1016700000E800FE80B586B002AFF860084611466B
:101680001A4603467B810B463B811346FB80FB8851
:10169000DAB27989204B00934FF08073F86800F03C
:1016A000D7F9FA69B969F86800F0F0F80346002B39
:1016B00001D001232CE0FB88012B05D13B89DAB254
:1016C000FB681B689A6215E03B891B0A9BB2DAB281
:1016D000FB681B689A62FA69B969F86800F0D6F885
:1016E0000346002B01D0012312E03B89DAB2FB68EC
:1016F0001B689A62FB690093BB6900228021F8682D
:1017000000F084F80346002B01D0012300E0002301
:1017100018461037BD4680BD0020008080B586B0D9
:1017200002AFF860084611461A4603467B810B4615
:101730003B811346FB80FB88DAB27989204B00930A
:101740000023F86800F084F9FA69B969F86800F0D4
:101750009DF80346002B01D001232CE0FB88012BD0
:1017600005D13B89DAB2FB681B689A6215E03B89B8
:101770001B0A9BB2DAB2FB681B689A62FA69B96904
:10178000F86800F083F80346002B01D0012312E033
:101790003B89DAB2FB681B689A62FB690093BB69FC
:1017A00000224021F86800F031F80346002B01D0F8
:1017B000012300E0002318461037BD4680BD00BF5E
:1017C0000020008080B483B000AF78607B681B6825
:1017D0009B6903F00203022B03D17B681B68002284
:1017E0009A627B681B689B6903F00103012B07D099
:1017F0007B681B689A697B681B6842F001029A61EA
:1018000000BF0C37BD465DF8047B704780B584B0DF
:1018100000AFF860B9603B601346FB7122E03B68A3
:10182000B3F1FF3F1ED0FFF783F90246BB69D31A1D
:101830003A689A4202D33B68002B13D1FB685B6C79
:1018400043F02002FB685A64FB68202283F84120A1
:10185000FB68002283F84220FB68002283F84020C6
:1018600001230FE0FB681B689A69BB681340BA68E4
:101870009A420CBF01230023DBB21A46FB799A423D
:10188000CDD0002318461037BD4680BD80B584B04A
:1018900000AFF860B9607A602CE07A68B968F868DF
:1018A00000F070F80346002B01D001232AE0BB684A
:1018B000B3F1FF3F1ED0FFF73BF902467B68D31A16
:1018C000BA689A4202D3BB68002B13D1FB685B6CE9
:1018D00043F02002FB685A64FB68202283F8412011
:1018E000FB68002283F84220FB68002283F8402036
:1018F000012307E0FB681B689B6903F00203022BCE
:10190000CBD1002318461037BD4680BD80B584B0CA
:1019100000AFF860B9607A6028E07A68B968F86862
:1019200000F030F80346002B01D0012326E0FFF73A
:10193000FFF802467B68D31ABA689A4202D3BB68A2
:10194000002B13D1FB685B6C43F02002FB685A64E8
:10195000FB68202283F84120FB68002283F84220A4
:10196000FB68002283F84020012307E0FB681B6826
:101970009B6903F02003202BCFD10023184610379A
:10198000BD4680BD80B584B000AFF860B9607A60B4
:10199000FB681B689B6903F01003102B51D122E0F8
:1019A000BB68B3F1FF3F1ED0FFF7C2F802467B6869
:1019B000D31ABA689A4202D3BB68002B13D1FB68D2
:1019C0005B6C43F02002FB685A64FB68202283F8BA
:1019D0004120FB68002283F84220FB68002283F844
:1019E000402001232EE0FB681B689B6903F0200365
:1019F000202BD5D1FB681B681022DA61FB681B68BD
:101A00002022DA61F868FFF7DDFEFB681B68596881
:101A1000FB681A680D4B0B405360FB685B6C43F02E
:101A20000402FB685A64FB68202283F84120FB68AB
:101A3000002283F84220FB68002283F84020012323
:101A400000E0002318461037BD4680BD00E800FEC8
:101A500080B485B000AFF8607B600B467B81134695
:101A60007B72FB681B685A68BB695B0D03F480617D
:101A70000D4B0B43DB4302EA03017B89C3F30902ED
:101A80007B7A1B0403F47F031A437B681A43BB6908
:101A90001A43FB681B680A435A6000BF1437BD46EF
:101AA0005DF8047B704700BFFF63FF0380B483B021
:101AB00000AF786039607B6893F84130DBB2202B4F
:101AC00038D17B6893F84030012B01D1022332E0FA
:101AD0007B68012283F840207B68242283F8412020
:101AE0007B681B681A687B681B6822F001021A6019
:101AF0007B681B681A687B681B6822F480521A6036
:101B00007B681B6819687B681B683A680A431A601F
:101B10007B681B681A687B681B6842F001021A60C8
:101B20007B68202283F841207B68002283F84020D4
:101B3000002300E0022318460C37BD465DF8047B05
:101B4000704780B485B000AF786039607B6893F8E7
:101B50004130DBB2202B39D17B6893F84030012B28
:101B600001D1022333E07B68012283F840207B68A7
:101B7000242283F841207B681B681A687B681B68F5
:101B800022F001021A607B681B681B68FB60FB681F
:101B900023F47063FB603B681B02FA681343FB602D
:101BA0007B681B68FA681A607B681B681A687B6828
:101BB0001B6842F001021A607B68202283F84120F2
:101BC0007B68002283F84020002300E002231846AF
:101BD0001437BD465DF8047B7047F0B58BB006AF97
:101BE00078607B68002B01D10123D0E07B6893F8FB
:101BF000A932DBB2002B06D17B68002283F8A82231
:101C00007868FEF701FE7B68032283F8A9227B68CF
:101C10001B68184603F029F90023FB734CE0FB7B9B
:101C200079685A1C13469B001344DB000B440133B4
:101C300001221A70FB7B79685A1C13469B001344DF
:101C4000DB000B44FA7B1A70FA7BFB7B98B2796855
:101C500013469B001344DB000B44363302461A80C4
:101C6000FB7B79685A1C13469B001344DB000B4432
:101C7000033300221A70FA7B796813469B001344E1
:101C8000DB000B44383300221A60FA7B7968134674
:101C90009B001344DB000B443C3300221A60FA7BA8
:101CA000796813469B001344DB000B444033002249
:101CB0001A60FB7B0133FB73FA7B7B685B689A429B
:101CC000ADD30023FB7344E0FA7B796813469B0095
:101CD0001344DB000B4403F2691300221A70FA7BF1
:101CE000796813469B001344DB000B4403F5B4737F
:101CF000FA7B1A70FA7B796813469B001344DB0069
:101D00000B4403F26B1300221A70FA7B79681346B6
:101D10009B001344DB000B4403F5BC7300221A60E4
:101D2000FA7B796813469B001344DB000B4403F5F0
:101D3000BE7300221A60FA7B796813469B00134435
:101D4000DB000B4403F5C07300221A60FB7B0133F8
:101D5000FB73FA7B7B685B689A42B5D37B681B6830
:101D60003B607E686D4606F110040FCC0FC52368FA
:101D70002B60331D0ECB386803F092F87B6800228D
:101D800083F824207B68012283F8A92200231846C7
:101D90001437BD46F0BD80B582B000AF78607B6877
:101DA0001B68184604F0D1F9034603F40043B3F569
:101DB000004F02D1786800F054F97B681B68184620
:101DC00004F0C3F9034603F48063B3F5806F12D1C6
:101DD0007B681B68B3F844309AB27B681B6822F4B6
:101DE000806292B2A3F84420786800F0F7F80021EE
:101DF000786800F011F97B681B68184604F0A5F9B3
:101E0000034603F48043B3F5804F0BD17B681B6816
:101E1000B3F844309AB27B681B6822F4804292B2D5
:101E2000A3F844207B681B68184604F08EF903462B
:101E300003F40053B3F5005F0BD17B681B68B3F864
:101E400044309AB27B681B6822F4005292B2A3F825
:101E500044207B681B68184604F077F9034603F4B6
:101E60008053B3F5805F26D17B681B68B3F84030A0
:101E70009AB27B681B6822F0040292B2A3F8402059
:101E80007B681B68B3F840309AB27B681B6822F00D
:101E9000080292B2A3F84020786800F0B3F87B689B
:101EA0001B68B3F844309AB27B681B6822F48052F6
:101EB00092B2A3F844207B681B68184604F045F9E9
:101EC000034603F40063B3F5006F26D17B681B68FB
:101ED000B3F840309AB27B681B6842F0080292B2B5
:101EE000A3F840207B681B68B3F844309AB27B6843
:101EF0001B6822F4006292B2A3F844207B681B683E
:101F0000B3F840309AB27B681B6842F0040292B288
:101F1000A3F84020786800F06BF87B681B681846CF
:101F200004F013F9034603F40073B3F5007F0ED1F8
:101F30007B681B68B3F844309AB27B681B6822F454
:101F4000007292B2A3F84420786800F03DF87B68F4
:101F50001B68184604F0F9F8034603F48073B3F5E0
:101F6000807F0BD17B681B68B3F844309AB27B68E2
:101F70001B6822F4807292B2A3F8442000BF083795
:101F8000BD4680BD80B483B000AF78600B46FB7067
:101F900000BF0C37BD465DF8047B704780B483B04A
:101FA00000AF78600B46FB7000BF0C37BD465DF894
:101FB000047B704780B483B000AF786000BF0C37FB
:101FC000BD465DF8047B704780B483B000AF786095
:101FD00000BF0C37BD465DF8047B704780B483B00A
:101FE00000AF786000BF0C37BD465DF8047B7047DA
:101FF00080B483B000AF786000BF0C37BD465DF899
:10200000047B704780B483B000AF786000BF0C37AA
:10201000BD465DF8047B704780B582B000AF786044
:102020000B46FB707B6893F8A832012B01D1022389
:1020300013E07B68012283F8A8227B68FA7883F892
:1020400024207B681B68FA781146184604F069F86A
:102050007B68002283F8A822002318460837BD4673
:1020600080BD80B58EB000AF7860D1E27B681B6820
:10207000B3F84430FB85FB8DDBB203F00F0387F828
:102080002D3097F82D30002B40F05281FB8D03F05E
:102090001003002B50D17B681B681B889BB223F474
:1020A000E14323F07003FB817B681A68FB896FEAC8
:1020B00043436FEA53439BB213807B6828337B62B0
:1020C0007B681B68B3F850309BB21A467B6A1B785A
:1020D000DB0013447A681268134403F202431B883E
:1020E000C3F309027B6ADA617B6A5A697B6ADB693E
:1020F0001A447B6A5A6100217868FFF74FFF7B68BA
:1021000093F82430DBB2002B00F082827B6A9B695B
:10211000002B40F07D827B6893F82430DBB263F0C3
:102120007F03DAB27B681B6892B2A3F84C207B680D
:10213000002283F824206BE27B6803F5B4737B6292
:102140007B681B681B887B857B8D03F40063002BF9
:1021500032D07B681B68B3F850309BB21A467B6A5A
:102160001B78DB0013447A681268134403F20643B9
:102170001B88C3F309027B6ADA617B6818687B6895
:1021800003F52C717B6ADA887B6ADB699BB204F009
:102190002EF87B681B681B889AB240F68F73134039
:1021A0003B827B681B683A8A42F0800292B21A80B6
:1021B0007868FFF7FFFE2BE2B7F92A30002B80F298
:1021C00027827B681B681B889AB240F68F73134086
:1021D000BB837B681B68BA8B42F0800292B21A8084
:1021E0007B681B68B3F850309BB21A467B6A1B7839
:1021F000DB0013447A681268134403F206431B8819
:10220000C3F309027B6ADA617B6ADB69002B19D0B0
:102210007B6A5B69002B15D07B6818687B6A5969FB
:102220007B6ADA887B6ADB699BB203F0E0FF7B6A3A
:102230005A697B6ADB691A447B6A5A6100217868B3
:10224000FFF7A0FE7B681B68BB617B681B68B3F867
:1022500050309BB21A46BB691344BB61BB6903F2A1
:1022600006437B617B6A1B69002B12D17B691B884B
:102270009BB223F4F8439AB27B691A807B691B886E
:102280009BB26FEA43436FEA53439AB27B691A8069
:102290002FE07B6A1B693E2B13D87B6A1B695B08A6
:1022A0003B637B6A1B6903F00103002B02D03B6B8D
:1022B00001333B633B6B9BB29B029AB27B691A80F2
:1022C00017E07B6A1B695B093B637B6A1B6903F050
:1022D0001F03002B02D13B6B013B3B633B6B9BB26B
:1022E0009B029BB26FEA43436FEA53439AB27B6906
:1022F0001A807B681B681B889BB223F4804323F001
:1023000070037B827B8A83F480537B827B8A83F495
:1023100000537B827B681A687B8A43F07F4343F4D7
:102320007F0343F4004343F080039BB213806FE1CB
:102330007B681B681A4697F82D309B0013441B8856
:102340007B85B7F92A30002B80F2E4807B681B681C
:102350001A4697F82D309B0013441B889AB240F61A
:102360008F7313403B857B681B681A4697F82D30A6
:102370009B0013443A8D42F0800292B21A8097F883
:102380002D2013469B001344DB0003F5B4737A68D9
:1023900013447B627B6A1B7B002B20D17B681B680C
:1023A000B3F850309BB21A467B6A1B78DB001344AB
:1023B0007A681268134403F206431B88C3F30903C7
:1023C000FB86FB8E002B00F083807B6818687B6A9D
:1023D00059697B6ADA88FB8E03F009FF78E07B6A33
:1023E000DB78022B08D17B8D1A46796A786800F079
:1023F0001DF90346FB866BE07B681B681A467B6A07
:102400001B789B0013441B889BB223F4E04323F00A
:1024100070037B847B681B681A467B6A1B789B0071
:102420001A447B8C43F07F4343F47F0343F400431F
:1024300043F0C0039BB213807B681B681A467B6A1B
:102440001B789B0013441B889BB203F48043002B32
:102450001FD07B681B68B3F850309BB21A467B6A6A
:102460001B78DB0013447A681268134403F20243BA
:102470001B88C3F30903FB86FB8E002B28D07B68E7
:1024800018687B6A59697B6A1A89FB8E03F0AFFE74
:102490001EE07B681B68B3F850309BB21A467B6A1B
:1024A0001B78DB0013447A681268134403F2064376
:1024B0001B88C3F30903FB86FB8E002B08D07B68C7
:1024C00018687B6A59697B6A5A89FB8E03F08FFE14
:1024D0007B6ADA69FB8E1A447B6ADA617B6A5A6925
:1024E000FB8E1A447B6A5A617B6A9B69002B04D07D
:1024F000FA8E7B6A1B699A4206D27B6A1B78194660
:102500007868FFF73FFD05E07B681B68796A18462D
:1025100002F0E7FC7B8D03F08003002B78D097F866
:102520002D305A1C13469B001344DB007A68134479
:102530007B627B681B681A4697F82D309B0013441A
:102540001B889BB223F4E14323F070033B847B6838
:102550001B681A4697F82D309B001A443B8C6FEA93
:1025600043436FEA53439BB213807B6ADB78022BB1
:1025700008D17B6ADB78022B44D17B8D03F4807316
:10258000002B3FD17B681B68B3F850309BB21A46D2
:102590007B6A1B78DB0013447A681268134403F2E9
:1025A00002431B88C3F30903FB837B6A9A69FB8B95
:1025B0009A4206D97B6A9A69FB8BD21A7B6A9A6126
:1025C00002E07B6A00229A617B6A9B69002B06D13C
:1025D0007B6A1B7819467868FFF7E0FC18E07B6A95
:1025E0005A69FB8B1A447B6A5A617B6ADA69FB8BF6
:1025F0001A447B6ADA617B681B68796A184602F0C4
:1026000070FC05E07B8D1A46796A786800F017F94E
:102610007B681B68B3F844309BB21BB2002BFFF6FB
:1026200025AD002318463837BD4680BD80B588B03B
:1026300000AFF860B9601346FB80FB8803F4804369
:10264000002B7CD0FB681B68B3F850309BB21A4655
:10265000BB681B78DB001344FA681268134403F26A
:1026600002431B88C3F309037B83BB689A697B8B96
:102670009A4206D3BB689A697B8BD21ABB689A616F
:1026800002E0BB6800229A61BB689B69002B23D1E2
:10269000FB681B681A46BB681B789B0013441B88A9
:1026A0009BB223F4804323F070033B833B8B83F482
:1026B00000533B83FB681B681A46BB681B789B0072
:1026C0001A443B8B43F07F4343F47F0343F40043BE
:1026D00043F080039BB21380FB8803F04003002B80
:1026E0001FD0FB681B681A46BB681B789B0013440D
:1026F0001B889BB223F4E04323F07003FB82FB684A
:102700001B681A46BB681B789B001A44FB8A43F07F
:102710007F4343F47F0343F4004343F0C0039BB281
:1027200013807B8B002B00F08580FB681868BB68EA
:102730005969BB681A897B8B03F059FD7AE0FB6805
:102740001B68B3F850309BB21A46BB681B78DB009D
:102750001344FA681268134403F206431B88C3F358
:1027600009037B83BB689A697B8B9A4206D3BB685B
:102770009A697B8BD21ABB689A6102E0BB6800221F
:102780009A61BB689B69002B23D1FB681B681A46C2
:10279000BB681B789B0013441B889BB223F48043C7
:1027A00023F07003FB83FB8B83F40053FB83FB68F4
:1027B0001B681A46BB681B789B001A44FB8B43F0CE
:1027C0007F4343F47F0343F4004343F080039BB211
:1027D0001380FB8803F04003002B1FD1FB681B68AC
:1027E0001A46BB681B789B0013441B889BB223F4DA
:1027F000E04323F07003BB83FB681B681A46BB6889
:102800001B789B001A44BB8B43F07F4343F47F0348
:1028100043F4004343F0C0039BB213807B8B002B37
:1028200008D0FB681868BB685969BB685A897B8BFC
:1028300003F0DDFC7B8B18462037BD4680BD80B59C
:1028400094B000AFF860B9601346FB80FB8803F0DA
:102850004003002B00F03681FB681B68B3F8503052
:102860009BB21A46BB681B78DB001344FA681268F7
:10287000134403F202431B88C3F30903A7F848304B
:10288000BB689A69B7F848309A4207D9BB689A6919
:10289000B7F84830D21ABB689A6102E0BB680022E0
:1028A0009A61BB689B69002B2CD1BB681B781946C9
:1028B000F868FFF773FBFB8803F48043002B00F0FC
:1028C0003882FB681B681A46BB681B789B00134460
:1028D0001B889BB223F4E04323F07003FB82FB6868
:1028E0001B681A46BB681B789B001A44FB8A43F09E
:1028F0007F4343F47F0343F4404343F080039BB2A0
:10290000138016E2FB8803F48043002B1FD0FB6882
:102910001B681A46BB681B789B0013441B889BB23C
:1029200023F4E04323F070037B85FB681B681A46A1
:10293000BB681B789B001A447B8D43F07F4343F4B4
:102940007F0343F4404343F080039BB21380BB6892
:1029500093F82430012B40F0EC81BB685A69B7F83A
:1029600048301A44BB685A61BB68DA69B7F8483026
:102970001A44BB68DA61BB681A6ABB681B699A4271
:1029800009D3BB681B697B64BB681A6A7B6CD21A6B
:10299000BB681A6215E0BB681B6A002B07D1B7F849
:1029A00048307B64BB68002283F8242009E0BB68C0
:1029B000002283F82420BB681B6A7B64BB6800226A
:1029C0001A62BB685B78002B55D1FB681B68FB6102
:1029D000FB681B68B3F850309BB21A46FB6913447E
:1029E000FB61BB681B78DA00FB69134403F2024306
:1029F000BB617B6C002B12D1BB691B889BB223F49B
:102A0000F8439AB2BB691A80BB691B889BB26FEA14
:102A100043436FEA53439AB2BB691A8047E07B6C29
:102A20003E2B11D87B6C5B08FB627B6C03F00103CF
:102A3000002B02D0FB6A0133FB62FB6A9BB29B0254
:102A40009AB2BB691A8032E07B6C5B09FB627B6CDB
:102A500003F01F03002B02D1FB6A013BFB62FB6A00
:102A60009BB29B029BB26FEA43436FEA53439AB215
:102A7000BB691A801BE0BB685B78012B17D1FB6830
:102A80001B687B62FB681B68B3F850309BB21A4628
:102A90007B6A13447B62BB681B78DA007B6A134451
:102AA00003F202433B627B6C9AB23B6A1A80FB687A
:102AB0001868BB685969BB681A897B6C9BB203F0C4
:102AC00054FB36E1FB681B68B3F850309BB21A46E2
:102AD000BB681B78DB001344FA681268134403F2E6
:102AE00006431B88C3F30903A7F84830BB689A69FB
:102AF000B7F848309A4207D3BB689A69B7F84830AC
:102B0000D21ABB689A6102E0BB6800229A61BB6876
:102B10009B69002B2ED1BB681B781946F868FFF71C
:102B20003DFAFB8803F48043002B40F00281FB68F0
:102B30001B681A46BB681B789B0013441B889BB21A
:102B400023F4E04323F07003A7F84A30FB681B68C6
:102B50001A46BB681B789B001A44B7F84A3043F00A
:102B60007F4343F47F0343F4404343F080039BB22D
:102B70001380DEE0FB8803F48043002B1FD1FB6849
:102B80001B681A46BB681B789B0013441B889BB2CA
:102B900023F4E04323F070037B86FB681B681A462E
:102BA000BB681B789B001A447B8E43F07F4343F441
:102BB0007F0343F4404343F080039BB21380BB6820
:102BC00093F82430012B40F0B480BB685A69B7F801
:102BD00048301A44BB685A61BB68DA69B7F84830B4
:102BE0001A44BB68DA61BB681A6ABB681B699A42FF
:102BF00009D3BB681B697B64BB681A6A7B6CD21AF9
:102C0000BB681A6215E0BB681B6A002B07D1B7F8D6
:102C100048307B64BB68002283F8242009E0BB684D
:102C20001B6A7B64BB6800221A62BB68002283F8BF
:102C30002420FB681B683B64BB685B78002B55D184
:102C4000FB681B68BB63FB681B68B3F850309BB222
:102C50001A46BB6B1344BB63BB681B78DA00BB6BC3
:102C6000134403F206437B637B6C002B12D17B6B16
:102C70001B889BB223F4F8439AB27B6B1A807B6B60
:102C80001B889BB26FEA43436FEA53439AB27B6B54
:102C90001A8044E07B6C3E2B11D87B6C5B08FB6494
:102CA0007B6C03F00103002B02D0FB6C0133FB644F
:102CB000FB6C9BB29B029AB27B6B1A802FE07B6C01
:102CC0005B09FB647B6C03F01F03002B02D1FB6CE0
:102CD000013BFB64FB6C9BB29B029BB26FEA4343DC
:102CE0006FEA53439AB27B6B1A8018E0BB685B783B
:102CF000012B14D1FB681B68B3F850309BB21A4605
:102D00003B6C13443B64BB681B78DA003B6C134498
:102D100003F20643FB637B6C9AB2FB6B1A80FB6881
:102D20001868BB685969BB685A897B6C9BB203F011
:102D30001CFAFB681B681A46BB681B789B0013448F
:102D40001B889BB223F4E04323F04003BB82BB8A81
:102D500083F01003BB82BB8A83F02003BB82FB6835
:102D60001B681A46BB681B789B001A44BB8A43F059
:102D70007F4343F47F0343F4004343F080039BB25B
:102D80001380002318465037BD4680BD80B5ADF591
:102D9000027D00AF3B1D18603B1D1B68002B02D15C
:102DA000012300F001BF3B1D1B681B6803F00103FA
:102DB000002B00F06081AE4B5B6803F00C03042B2A
:102DC0000CD0AB4B5B6803F00C03082B59D1A84B1C
:102DD0005B6803F4C033B3F5803F52D14FF4003346
:102DE000C7F8F431D7F8F43193FAA3F3C7F8F03108
:102DF000D7F8F031B3FA83F3DBB25B09DBB243F00F
:102E00000103DBB2012B02D1994B1B6815E04FF493
:102E10000033C7F8EC31D7F8EC3193FAA3F3C7F8D5
:102E2000E8314FF40033C7F8E431D7F8E43193FACE
:102E3000A3F3C7F8E0318E4B5B6A4FF40032C7F85A
:102E4000DC21D7F8DC2192FAA2F2C7F8D821D7F812
:102E5000D821B2FA82F2D2B242F02002D2B202F00B
:102E60001F02012101FA02F21340002B00F002813F
:102E70003B1D1B685B68002B40F0FC80012300F0C9
:102E800093BE3B1D1B685B68B3F5803F06D1784B52
:102E90001B68774A43F48033136030E03B1D1B68A6
:102EA0005B68002B0CD1724B1B68714A23F4803392
:102EB00013606F4B1B686E4A23F4802313601EE07F
:102EC0003B1D1B685B68B3F5A02F0CD1684B1B68DA
:102ED000674A43F480231360654B1B68644A43F4DC
:102EE000803313600BE0624B1B68614A23F480332C
:102EF00013605F4B1B685E4A23F4802313603B1D05
:102F00001B685B68002B59D0FDF712FEC7F8000262
:102F10000AE0FDF70DFE0246D7F80032D31A642B03
:102F200002D9032300F040BE4FF40033C7F8D43178
:102F3000D7F8D43193FAA3F3C7F8D031D7F8D0310A
:102F4000B3FA83F3DBB25B09DBB243F00103DBB21C
:102F5000012B02D1464B1B6815E04FF40033C7F834
:102F6000CC31D7F8CC3193FAA3F3C7F8C8314FF47A
:102F70000033C7F8C431D7F8C43193FAA3F3C7F8C4
:102F8000C0313B4B5B6A4FF40032C7F8BC21D7F825
:102F9000BC2192FAA2F2C7F8B821D7F8B821B2FA48
:102FA00082F2D2B242F02002D2B202F01F0201211C
:102FB00001FA02F21340002BABD05CE0FDF7B8FD44
:102FC000C7F800020AE0FDF7B3FD0246D7F8003269
:102FD000D31A642B02D9032300F0E6BD4FF400336B
:102FE000C7F8B431D7F8B43193FAA3F3C7F8B031C6
:102FF000D7F8B031B3FA83F3DBB25B09DBB243F04D
:103000000103DBB2012B02D1194B1B6815E04FF411
:103010000033C7F8AC31D7F8AC3193FAA3F3C7F853
:10302000A8314FF40033C7F8A431D7F8A43193FA8C
:10303000A3F3C7F8A0310E4B5B6A4FF40032C7F818
:103040009C21D7F89C2192FAA2F2C7F89821D7F8D0
:103050009821B2FA82F2D2B242F02002D2B202F049
:103060001F02012101FA02F21340002BABD102E052
:103070000010024000BF3B1D1B681B6803F00203E9
:10308000002B00F07081D04B5B6803F00C03002B29
:103090000CD0CD4B5B6803F00C03082B6DD1CA4BF1
:1030A0005B6803F4C033B3F5004F66D10223C7F861
:1030B0009431D7F8943193FAA3F3C7F89031D7F845
:1030C0009031B3FA83F3DBB25B09DBB243F0010367
:1030D000DBB2012B02D1BC4B1B6813E00223C7F803
:1030E0008C31D7F88C3193FAA3F3C7F888310223D7
:1030F000C7F88431D7F8843193FAA3F3C7F8803145
:10310000B14B5B6A0222C7F87C21D7F87C2192FA86
:10311000A2F2C7F87821D7F87821B2FA82F2D2B2B7
:1031200042F02002D2B202F01F02012101FA02F2A3
:103130001340002B07D03B1D1B68DB68012B02D01E
:10314000012300F031BDA04B1B6823F0F8023B1DAA
:103150001B681B69F821C7F87411D7F8741191FA2C
:10316000A1F1C7F87011D7F87011B1FA81F1C9B2A5
:103170008B40954913430B60F5E03B1D1B68DB68F2
:10318000002B00F085800123C7F86C31D7F86C3133
:1031900093FAA3F3C7F86831D7F86831B3FA83F329
:1031A000DBB203F1845303F584139B001A46012319
:1031B0001360FDF7BDFCC7F800020AE0FDF7B8FC9C
:1031C0000246D7F80032D31A022B02D9032300F0AB
:1031D000EBBC0223C7F86431D7F8643193FAA3F348
:1031E000C7F86031D7F86031B3FA83F3DBB25B091B
:1031F000DBB243F00103DBB2012B02D1724B1B683F
:1032000013E00223C7F85C31D7F85C3193FAA3F3DB
:10321000C7F858310223C7F85431D7F8543193FA1C
:10322000A3F3C7F85031684B5B6A0222C7F84C2100
:10323000D7F84C2192FAA2F2C7F84821D7F84821D2
:10324000B2FA82F2D2B242F02002D2B202F01F02EF
:10325000012101FA02F21340002BAFD05A4B1B6838
:1032600023F0F8023B1D1B681B69F821C7F84411C5
:10327000D7F8441191FAA1F1C7F84011D7F84011DD
:10328000B1FA81F1C9B28B404F4913430B606AE038
:103290000123C7F83C31D7F83C3193FAA3F3C7F8C0
:1032A0003831D7F83831B3FA83F3DBB203F1845302
:1032B00003F584139B001A4600231360FDF738FCC6
:1032C000C7F800020AE0FDF733FC0246D7F80032E7
:1032D000D31A022B02D9032300F066BC0223C7F8DD
:1032E0003431D7F8343193FAA3F3C7F83031D7F833
:1032F0003031B3FA83F3DBB25B09DBB243F0010395
:10330000DBB2012B02D1304B1B6813E00223C7F85C
:103310002C31D7F82C3193FAA3F3C7F828310223C4
:10332000C7F82431D7F8243193FAA3F3C7F8203132
:10333000254B5B6A0222C7F81C21D7F81C2192FAA0
:10334000A2F2C7F81821D7F81821B2FA82F2D2B245
:1033500042F02002D2B202F01F02012101FA02F271
:103360001340002BAFD13B1D1B681B6803F0080303
:10337000002B00F0DA803B1D1B685B69002B69D0D5
:103380000123C7F81431D7F8143193FAA3F3C7F81F
:103390001031D7F81031B3FA83F3DBB21A460B4B76
:1033A00013449B001A4601231360FDF7C1FBC7F8C5
:1033B00000020DE0FDF7BCFB0246D7F80032D31A3D
:1033C000022B05D90323EFE3001002402081901067
:1033D0000223C7F80C31D7F80C3193FAA3F207F5A2
:1033E00084731A6007F5827302221A6007F58273EC
:1033F0001B6893FAA3F207F580731A6007F1FC03C8
:1034000002221A6007F1FC031B6893FAA3F207F18A
:10341000F8031A60A44B5A6A07F1F40302211960F9
:1034200007F1F4031B6893FAA3F107F1F0031960A5
:1034300007F1F0031B68B3FA83F3DBB243F06003D8
:10344000DBB203F01F03012101FA03F31340002B49
:10345000B0D06AE007F1EC0301221A6007F1EC0337
:103460001B6893FAA3F207F1E8031A6007F1E80377
:103470001B68B3FA83F3DBB21A468C4B13449B00F0
:103480001A4600231360FDF753FBC7F8000209E05A
:10349000FDF74EFB0246D7F80032D31A022B01D9B2
:1034A000032381E307F1E40302221A6007F1E40336
:1034B0001B6893FAA3F207F1E0031A6007F1DC033B
:1034C00002221A6007F1DC031B6893FAA3F207F1EA
:1034D000D8031A6007F1D40302221A6007F1D4035B
:1034E0001B6893FAA3F207F1D0031A606E4B5A6A75
:1034F00007F1CC030221196007F1CC031B6893FA92
:10350000A3F107F1C803196007F1C8031B68B3FAF8
:1035100083F3DBB243F06003DBB203F01F0301214E
:1035200001FA03F31340002BB2D13B1D1B681B684B
:1035300003F00403002B00F05781002387F80732C3
:10354000594BDB6903F08053002B12D1564BDB69DA
:10355000554A43F08053D361534BDB6903F08052EB
:1035600007F10C031A6007F10C031B68012387F8AD
:1035700007324F4B1B6803F48073002B1AD14C4B5E
:103580001B684B4A43F480731360FDF7D1FAC7F808
:10359000000209E0FDF7CCFA0246D7F80032D31A50
:1035A000642B01D90323FFE2414B1B6803F48073B2
:1035B000002BEFD03B1D1B689B68012B06D13A4BBB
:1035C0001B6A394A43F0010313622FE03B1D1B685D
:1035D0009B68002B0CD1344B1B6A334A23F0010348
:1035E0001362314B1B6A304A23F0040313621DE05F
:1035F0003B1D1B689B68052B0CD12B4B1B6A2A4A71
:1036000043F004031362284B1B6A274A43F001036B
:1036100013620BE0244B1B6A234A23F0010313625D
:10362000214B1B6A204A23F0040313623B1D1B68D5
:103630009B68002B6AD0FDF77BFAC7F800020BE00D
:10364000FDF776FA0246D7F80032D31A41F28832F3
:10365000934201D90323A7E207F1C40302221A60AF
:1036600007F1C4031B6893FAA3F207F1C0031A60C1
:1036700007F1BC0302221A6007F1BC031B6893FA2E
:10368000A3F207F1B8031A6007F1B8031B68B3FA95
:1036900083F3DBB25B09DBB243F00203DBB2022B44
:1036A00008D1014B1B6A13E00010024020819010EA
:1036B0000070004007F1B40302221A6007F1B4035E
:1036C0001B6893FAA3F207F1B0031A60C04B5B6A60
:1036D00007F1AC020221116007F1AC02126892FA04
:1036E000A2F107F1A802116007F1A8021268B2FA6C
:1036F00082F2D2B242F04002D2B202F01F020121A5
:1037000001FA02F21340002B9AD063E0FDF710FAA1
:10371000C7F800020BE0FDF70BFA0246D7F80032BB
:10372000D31A41F28832934201D903233CE207F1D4
:10373000A40302221A6007F1A4031B6893FAA3F200
:1037400007F1A0031A6007F19C0302221A6007F137
:103750009C031B6893FAA3F207F198031A6007F120
:1037600098031B68B3FA83F3DBB25B09DBB243F067
:103770000203DBB2022B02D1954B1B6A0DE007F16D
:10378000940302221A6007F194031B6893FAA3F2D0
:1037900007F190031A608E4B5B6A07F18C020221DD
:1037A000116007F18C02126892FAA2F107F1880207
:1037B000116007F188021268B2FA82F2D2B242F0C6
:1037C0004002D2B202F01F02012101FA02F21340BC
:1037D000002BA0D197F80732012B05D17C4BDB6978
:1037E0007B4A23F08053D3613B1D1B689B69002BF0
:1037F00000F0D981764B5B6803F00C03082B00F0D6
:10380000A6813B1D1B689B69022B40F01E8107F1BE
:1038100084034FF080721A6007F184031B6893FAE7
:10382000A3F207F180031A6007F180031B68B3FA63
:1038300083F3DBB203F1845303F584139B001A4630
:1038400000231360FDF774F9C7F8000209E0FDF7E3
:103850006FF90246D7F80032D31A022B01D903239D
:10386000A2E107F17C034FF000721A6007F17C03BC
:103870001B6893FAA3F207F178031A6007F1780343
:103880001B68B3FA83F3DBB25B09DBB243F00103DD
:10389000DBB2012B02D14E4B1B681BE007F1740316
:1038A0004FF000721A6007F174031B6893FAA3F2D9
:1038B00007F170031A6007F16C034FF000721A6091
:1038C00007F16C031B6893FAA3F207F168031A600F
:1038D0003F4B5B6A07F164024FF00071116007F122
:1038E0006402126892FAA2F107F16002116007F116
:1038F00060021268B2FA82F2D2B242F02002D2B270
:1039000002F01F02012101FA02F21340002B9ED1A6
:103910002F4BDB6A23F00F023B1D1B685B6A2C49AF
:103920001343CB622A4B5B6823F476123B1D1B6862
:10393000196A3B1D1B68DB690B43254913434B6028
:1039400007F15C034FF080721A6007F15C031B689B
:1039500093FAA3F207F158031A6007F158031B68A2
:10396000B3FA83F3DBB203F1845303F584139B00B2
:103970001A4601231360FDF7DBF8C7F8000209E0DF
:10398000FDF7D6F80246D7F80032D31A022B01D938
:10399000032309E107F154034FF000721A6007F1A5
:1039A00054031B6893FAA3F207F150031A6007F15E
:1039B00050031B68B3FA83F3DBB25B09DBB243F05D
:1039C0000103DBB2012B05D1014B1B681EE000BFD8
:1039D0000010024007F14C034FF000721A6007F12B
:1039E0004C031B6893FAA3F207F148031A6007F12E
:1039F00044034FF000721A6007F144031B6893FA06
:103A0000A3F207F140031A606A4B5B6A07F13C02BC
:103A10004FF00071116007F13C02126892FAA2F1B6
:103A200007F13802116007F138021268B2FA82F227
:103A3000D2B242F02002D2B202F01F02012101FAFA
:103A400002F21340002B9BD0ADE007F134034FF09E
:103A500080721A6007F134031B6893FAA3F207F12E
:103A600030031A6007F130031B68B3FA83F3DBB24B
:103A700003F1845303F584139B001A46002313605B
:103A8000FDF756F8C7F8000209E0FDF751F80246C5
:103A9000D7F80032D31A022B01D9032384E007F1AF
:103AA0002C034FF000721A6007F12C031B6893FA85
:103AB000A3F207F128031A6007F128031B68B3FA81
:103AC00083F3DBB25B09DBB243F00103DBB2012B12
:103AD00002D1384B1B681BE007F124034FF0007242
:103AE0001A6007F124031B6893FAA3F207F120037D
:103AF0001A6007F11C034FF000721A6007F11C03F3
:103B00001B6893FAA3F207F118031A60294B5B6A4A
:103B100007F114024FF00071116007F114021268EE
:103B200092FAA2F107F11002116007F11002126877
:103B3000B2FA82F2D2B242F02002D2B202F01F02F6
:103B4000012101FA02F21340002B9ED12BE03B1D14
:103B50001B689B69012B01D1012325E0154B5B6894
:103B6000C7F8FC31134BDB6AC7F8F831D7F8FC31E2
:103B700003F4C0323B1D1B68DB699A4211D1D7F8B0
:103B8000FC3103F470123B1D1B681B6A9A4208D17A
:103B9000D7F8F83103F00F023B1D1B685B6A9A42AD
:103BA00001D0012300E00023184607F50277BD4647
:103BB00080BD00BF0010024080B59EB000AF7860AD
:103BC000396000237B677B68002B01D1012362E110
:103BD000904B1B6803F007033A689A4210D98D4B4B
:103BE0001B6823F007028B493B6813430B60894B2A
:103BF0001B6803F007033A689A4201D001234AE1A7
:103C00007B681B6803F00203002B08D0824B5B68C3
:103C100023F0F0027B689B687F4913434B607B680D
:103C20001B6803F00103002B00F0DC807B685B68FD
:103C3000012B3CD14FF400333B673B6F93FAA3F366
:103C4000FB66FB6EB3FA83F3DBB25B09DBB243F0D6
:103C50000103DBB2012B02D16F4B1B680FE04FF465
:103C60000033BB66BB6E93FAA3F37B664FF400335D
:103C70003B663B6E93FAA3F3FB65674B5B6A4FF4BD
:103C80000032BA65BA6D92FAA2F27A657A6DB2FA2A
:103C900082F2D2B242F02002D2B202F01F0201211F
:103CA00001FA02F21340002B7BD10123F3E07B6881
:103CB0005B68022B3CD14FF000733B653B6D93FA80
:103CC000A3F3FB64FB6CB3FA83F3DBB25B09DBB2F7
:103CD00043F00103DBB2012B02D14F4B1B680FE015
:103CE0004FF00073BB64BB6C93FAA3F37B644FF09B
:103CF00000733B643B6C93FAA3F3FB63464B5B6A34
:103D00004FF00072BA63BA6B92FAA2F27A637A6BDE
:103D1000B2FA82F2D2B242F02002D2B202F01F0214
:103D2000012101FA02F21340002B3AD10123B2E043
:103D300002233B633B6B93FAA3F3FB62FB6AB3FA88
:103D400083F3DBB25B09DBB243F00103DBB2012B8F
:103D500002D1314B1B680DE00223BB62BB6A93FAB0
:103D6000A3F37B6202233B623B6A93FAA3F3FB61FA
:103D7000294B5B6A0222BA61BA6992FAA2F27A61AD
:103D80007A69B2FA82F2D2B242F02002D2B202F0E2
:103D90001F02012101FA02F21340002B01D101237D
:103DA00079E01D4B5B6823F003027B685B681A496E
:103DB00013434B60FCF7BCFE78670AE0FCF7B8FEE3
:103DC00002467B6FD31A41F28832934201D9032312
:103DD00061E0114B5B6803F00C027B685B689B0041
:103DE0009A42EBD10B4B1B6803F007033A689A42E7
:103DF00014D2084B1B6823F0070206493B681343A3
:103E00000B60044B1B6803F007033A689A4205D025
:103E1000012340E000200240001002407B681B6844
:103E200003F00403002B08D01D4B5B6823F4E06211
:103E30007B68DB681A4913434B607B681B6803F09F
:103E40000803002B09D0164B5B6823F460527B6893
:103E50001B69DB00124913434B6000F029F801464F
:103E60000F4B5B6803F0F003F0223A613A6992FA73
:103E7000A2F2FA60FA68B2FA82F2D2B2D340094AE8
:103E8000D35C21FA03F3084A1360084B1B681846F9
:103E9000FCF70AFE002318467837BD4680BD00BFF8
:103EA00000100240887F000800000020040000206D
:103EB00080B48BB000AF0023FB610023BB61002303
:103EC0007B6200237B6100233B622A4B5B68FB61C2
:103ED000FB6903F00C03042B02D0082B03D03FE056
:103EE000254B3B623FE0FB6903F470134FF4701203
:103EF000BA60BA6892FAA2F27A607A68B2FA82F28A
:103F0000D2B2D3401D4AD35C7B611A4BDB6A03F00B
:103F10000F030F223A613A6992FAA2F2FA60FA6844
:103F2000B2FA82F2D2B2D340154AD35CBB61FB69CC
:103F300003F48033002B08D00F4ABB69B2FBF3F2C5
:103F40007B6902FB03F37B6207E00B4ABB69B2FBB0
:103F5000F3F27B6902FB03F37B627B6A3B6202E064
:103F6000054B3B6200BF3B6A18462C37BD465DF8E7
:103F7000047B70470010024000127A00A07F000806
:103F8000B07F000880B400AF034B1B681846BD46E5
:103F90005DF8047B704700BF0000002080B582B050
:103FA00000AFFFF7EFFF01460B4B5B6803F4E063E4
:103FB0004FF4E0627A607A6892FAA2F23A603A6864
:103FC000B2FA82F2D2B2D340044AD35C21FA03F3AC
:103FD00018460837BD4680BD00100240987F000893
:103FE00080B582B000AFFFF7CDFF01460B4B5B6899
:103FF00003F460534FF460527A607A6892FAA2F246
:104000003A603A68B2FA82F2D2B2D340044AD35C40
:1040100021FA03F318460837BD4680BD0010024060
:10402000987F000880B592B000AF786000233B64B1
:104030000023FB63002387F847307B681B6803F489
:104040008033002B00F0D4804E4BDB6903F08053AB
:10405000002B0ED14B4BDB694A4A43F08053D361AE
:10406000484BDB6903F08053BB60BB68012387F8D2
:104070004730454B1B6803F48073002B18D1424B2B
:104080001B68414A43F480731360FCF751FD3864A8
:1040900008E0FCF74DFD02463B6CD31A642B01D9B6
:1040A0000323D6E1384B1B6803F48073002BF0D058
:1040B000344B1B6A03F44073FB63FB6B002B00F073
:1040C00084807B685B6803F44073FA6B9A427CD00F
:1040D0002C4B1B6A23F44073FB634FF480333B6328
:1040E0003B6B93FAA3F3FB62FB6AB3FA83F3DBB295
:1040F0001A46264B13449B001A46012313604FF4C3
:104100008033BB63BB6B93FAA3F37B637B6BB3FA24
:1041100083F3DBB21A461D4B13449B001A4600235F
:104120001360184AFB6B1362FB6B03F00103002B57
:104130004BD0FCF7FDFC38640AE0FCF7F9FC0246C2
:104140003B6CD31A41F28832934201D9032380E1B8
:104150000223BB62BB6A93FAA3F37B6202233B6236
:104160003B6A93FAA3F3FB61FB69B3FA83F3DBB217
:104170005B09DBB243F00203DBB2022B08D1014B37
:104180001B6A0DE00010024000700040008190109A
:104190000223BB61BB6993FAA3F37B61A04B5B6A0B
:1041A00002223A613A6992FAA2F2FA60FA68B2FA25
:1041B00082F2D2B242F04002D2B202F01F020121DA
:1041C00001FA02F21340002BB7D0954B1B6A23F47F
:1041D00040727B685B68924913430B6297F84730E3
:1041E000012B05D18E4BDB698D4A23F08053D361BF
:1041F0007B681B6803F00103002B08D0884B1B6B06
:1042000023F003027B689B68854913430B637B683B
:104210001B6803F00203002B08D0814B1B6B23F4B7
:1042200040327B68DB687E4913430B637B681B6805
:1042300003F00403002B08D0794B1B6B23F44022BE
:104240007B681B69764913430B637B681B6803F02B
:104250002003002B08D0724B1B6B23F010027B68ED
:10426000DB696F4913430B637B681B6803F40033FE
:10427000002B08D06A4B5B6823F480027B685B6D7F
:10428000674913434B607B681B6803F04003002BB6
:1042900008D0634B1B6B23F020027B681B6A6049CC
:1042A00013430B637B681B6803F48023002B08D047
:1042B0005B4B1B6B23F040027B685B6A58491343DE
:1042C0000B637B681B6803F00803002B08D0544B7A
:1042D0001B6B23F440127B685B69514913430B63EA
:1042E0007B681B6803F01003002B08D04C4B1B6B42
:1042F00023F440027B689B69494913430B637B6845
:104300001B6803F40073002B08D0454B5B6823F453
:1043100000027B681B6B424913434B607B681B6840
:1043200003F08003002B08D03D4BDB6A23F4F872C6
:104330007B689B6A3A491343CB627B681B6803F432
:104340008073002B08D0364BDB6A23F478527B68ED
:10435000DB6A33491343CB627B681B6803F48053E9
:10436000002B08D02E4B1B6B23F480727B685B6B99
:104370002B4913430B637B681B6803F40053002B2A
:1043800008D0274B1B6B23F400727B681B6C2449FD
:1043900013430B637B681B6803F48013002B08D066
:1043A0001F4B1B6B23F080727B689B6B1C49134374
:1043B0000B637B681B6803F40013002B08D0184BB9
:1043C0001B6B23F000727B68DB6B154913430B6397
:1043D0007B681B6803F48003002B08D0104B1B6B19
:1043E00023F480627B685B6C0D4913430B637B682D
:1043F0001B6803F40003002B08D0094B1B6B23F44C
:1044000000627B689B6C064913430B637B681B68E7
:1044100003F08073002B0CD0014B1B6B02E000BF3C
:104420000010024023F400527B68DB6C0B491343FD
:104430000B637B681B6803F00073002B08D0074BED
:104440001B6B23F400427B681B6D044913430B6311
:10445000002318464837BD4680BD00BF001002400B
:1044600080B582B000AF78607B68002B01D101235A
:1044700083E07B685B7FDBB2002B05D17B68002289
:104480001A777868FCF756F97B6802225A777B68BE
:104490001B68CA225A627B681B6853225A6278687A
:1044A00000F097F80346002B08D07B681B68FF22BA
:1044B0005A627B6804225A7701235EE07B681B689E
:1044C0009B687A68126823F4E00323F0400393604A
:1044D0007B681B6899687B685A687B681B691A430C
:1044E0007B685B691A437B681B680A439A607B6838
:1044F0001B687A68D2681A617B681B6819697B68D7
:104500009B681A047B681B680A431A617B681B68F6
:10451000DA687B681B6822F08002DA607B681B68BF
:104520009B6803F02003002B0ED1786800F029F877
:104530000346002B08D07B681B68FF225A627B6809
:1045400004225A77012318E07B681B681A6C7B6889
:104550001B6822F480221A647B681B68196C7B68D4
:104560009A697B681B680A431A647B681B68FF2290
:104570005A627B6801225A77002318460837BD46E5
:1045800080BD80B584B000AF78600023FB607B689D
:104590001B68DA687B681B6822F0A002DA60FCF70F
:1045A000C7FAF86009E0FCF7C3FA0246FB68D31AC1
:1045B000B3F57A7F01D9032307E07B681B68DB68CA
:1045C00003F02003002BEED0002318461037BD4621
:1045D00080BD80B584B000AF78600023FB607B684D
:1045E0001B68DB6803F04003002B19D17B681B6854
:1045F0004FF0FF32DA60FCF79BFAF86009E0FCF755
:1046000097FA0246FB68D31AB3F57A7F01D90323E0
:1046100007E07B681B68DB6803F04003002BEED0EB
:10462000002318461037BD4680BD80B582B000AF6C
:1046300078607B68002B01D1012340E07B689B6F91
:10464000002B06D17B68002283F874207868FCF781
:1046500097F87B6824229A677B681B681A687B68D6
:104660001B6822F001021A60786800F0C1F8034666
:10467000012B01D1012322E07B685B6A002B02D071
:10468000786800F08BFA7B681B685A687B681B6847
:1046900022F490425A607B681B689A687B681B68AA
:1046A00022F02A029A607B681B681A687B681B6884
:1046B00042F001021A60786800F012FB03461846C7
:1046C0000837BD4680BD80B58AB002AFF860B960DA
:1046D0003B601346FB80FB689B6F202B40F0828081
:1046E000BB68002B02D0FB88002B01D101237AE0AC
:1046F000FB6893F87430012B01D1022373E0FB684F
:10470000012283F87420FB680022C3F88020FB6834
:1047100021229A67FCF70CFA7861FB68FA88A3F803
:104720005020FB68FA88A3F85220FB689B68B3F519
:10473000805F08D1FB681B69002B04D10023FB615B
:10474000BB68BB6103E0BB68FB610023BB61FB6826
:10475000002283F874202DE03B6800937B690022DF
:104760008021F86800F005FB0346002B01D00323ED
:1047700039E0FB69002B0BD1BB691A88FB681B6809
:10478000C2F3080292B21A85BB690233BB6108E02A
:10479000FB691A78FB681B6892B21A85FB690133C2
:1047A000FB61FB68B3F852309BB2013B9AB2FB68E5
:1047B000A3F85220FB68B3F852309BB2002BCBD148
:1047C0003B6800937B6900224021F86800F0D1FA31
:1047D0000346002B01D0032305E0FB6820229A67E3
:1047E000002300E0022318462037BD4680BD0000AC
:1047F00080B588B000AF78600023BB777B689A688B
:104800007B681B691A437B685B691A437B68DB69B9
:1048100013437B617B681B681A68AB4B13407A6853
:10482000126879690B4313607B681B685B6823F42B
:1048300040517B68DA687B681B680A435A607B6872
:104840009B697B617B681B6A7A6913437B617B6828
:104850001B689B6823F430617B681B687A690A4394
:104860009A607B681B68994A934220D1984B1B6BD6
:1048700003F00303032B17D801A252F823F000BF63
:10488000914800089D480008A34800089748000880
:104890000123FB77B5E00223FB77B2E00423FB772B
:1048A000AFE00823FB77ACE01023FB77A9E07B683F
:1048B0001B68884A934224D1854B1B6B03F4403319
:1048C000B3F5403F11D0B3F5403F17D8B3F5003FE3
:1048D00011D0B3F5003F11D8002B03D0B3F5803FC2
:1048E00006D00BE00023FB778BE00223FB7788E008
:1048F0000423FB7785E00823FB7782E01023FB7716
:104900007FE07B681B68744A934224D1704B1B6B19
:1049100003F44023B3F5402F11D0B3F5402F17D83F
:10492000B3F5002F11D0B3F5002F11D8002B03D011
:10493000B3F5802F06D00BE00023FB7761E0022364
:10494000FB775EE00423FB775BE00823FB7758E00E
:104950001023FB7755E07B681B68604A934224D1A3
:104960005B4B1B6B03F44013B3F5401F11D0B3F541
:10497000401F17D8B3F5001F11D0B3F5001F11D891
:10498000002B03D0B3F5801F06D00BE00023FB778C
:1049900037E00223FB7734E00423FB7731E0082380
:1049A000FB772EE01023FB772BE07B681B684C4ADB
:1049B000934224D1464B1B6B03F44003B3F5400FE5
:1049C00011D0B3F5400F17D8B3F5000F11D0B3F5E0
:1049D000000F11D8002B03D0B3F5800F06D00BE0E9
:1049E0000023FB770DE00223FB770AE00423FB772B
:1049F00007E00823FB7704E01023FB7701E0102396
:104A0000FB777B68DB69B3F5004F6DD1FB7F082B2B
:104A100027D801A252F823F03D4A0008454A000871
:104A20004D4A0008634A0008534A0008634A0008D8
:104A3000634A0008634A00085B4A0008FFF7AEFAC1
:104A4000B86113E0FFF7CCFAB8610FE0254BBB610A
:104A50000CE0FFF72DFAB86108E04FF40043BB61AA
:104A600004E00023BB610123BB7700BFBB69002BBF
:104A700000F08680BB695A007B685B685B081A445B
:104A80007B685B68B2FBF3F39BB23B613B690F2B26
:104A900016D93B69B3F5803F12D23B699BB223F034
:104AA0000F03FB813B695B089BB203F007039AB2DB
:104AB000FB891343FB817B681B68FA89DA605FE03E
:104AC0000123BB775CE000BFF369FFEF00380140D2
:104AD000001002400044004000480040004C0040EC
:104AE0000050004000127A00FB7F082B27D801A25B
:104AF00052F823F0194B0008214B0008294B0008FD
:104B00003F4B00082F4B00083F4B00083F4B00086D
:104B10003F4B0008374B0008FFF740FAB86113E03D
:104B2000FFF75EFAB8610FE01B4BBB610CE0FFF7CB
:104B3000BFF9B86108E04FF40043BB6104E0002313
:104B4000BB610123BB7700BFBB69002B18D07B681A
:104B50005B685A08BB691A447B685B68B2FBF3F375
:104B60009BB23B613B690F2B08D93B69B3F5803F92
:104B700004D27B681B683A69DA6001E00123BB77E5
:104B80007B6800225A667B6800229A66BB7F1846C3
:104B90002037BD4680BD00BF00127A0080B483B0CC
:104BA00000AF78607B685B6A03F00103002B0AD0DA
:104BB0007B681B685B6823F400317B689A6A7B68BA
:104BC0001B680A435A607B685B6A03F00203002B90
:104BD0000AD07B681B685B6823F480317B68DA6AE3
:104BE0007B681B680A435A607B685B6A03F00403B6
:104BF000002B0AD07B681B685B6823F480217B68EC
:104C00001A6B7B681B680A435A607B685B6A03F017
:104C10000803002B0AD07B681B685B6823F4004103
:104C20007B685A6B7B681B680A435A607B685B6AC7
:104C300003F01003002B0AD07B681B689B6823F4E9
:104C400080517B689A6B7B681B680A439A607B681B
:104C50005B6A03F02003002B0AD07B681B689B680B
:104C600023F400517B68DA6B7B681B680A439A6007
:104C70007B685B6A03F04003002B1AD07B681B68DB
:104C80005B6823F480117B681A6C7B681B680A439D
:104C90005A607B681B6CB3F5801F0AD17B681B6868
:104CA0005B6823F4C0017B685A6C7B681B680A430D
:104CB0005A607B685B6A03F08003002B0AD07B6834
:104CC0001B685B6823F400217B689A6C7B681B6817
:104CD0000A435A6000BF0C37BD465DF8047B70473D
:104CE00080B586B002AF78607B680022C3F8802070
:104CF000FBF71EFFF8607B681B681B6803F0080366
:104D0000082B0ED16FF07E430093FB6800224FF416
:104D10000011786800F02DF80346002B01D0032322
:104D200023E07B681B681B6803F00403042B0ED18F
:104D30006FF07E430093FB6800224FF48001786897
:104D400000F017F80346002B01D003230DE07B6829
:104D500020229A677B682022DA677B6800221A6625
:104D60007B68002283F87420002318461037BD4664
:104D700080BD80B584B000AFF860B9603B60134679
:104D8000FB715EE0BB69B3F1FF3F5AD0FBF7D0FE89
:104D900002463B68D31ABA699A4202D3BB69002B18
:104DA0001BD1FB681B681A68FB681B6822F4D07271
:104DB0001A60FB681B689A68FB681B6822F0010296
:104DC0009A60FB6820229A67FB682022DA67FB68FA
:104DD000002283F87420032343E0FB681B681B68F0
:104DE00003F00403002B2CD0FB681B68DB6903F481
:104DF0000063B3F5006F24D1FB681B684FF40062B9
:104E00001A62FB681B681A68FB681B6822F4D07280
:104E10001A60FB681B689A68FB681B6822F0010235
:104E20009A60FB6820229A67FB682022DA67FB6899
:104E30002022C3F88020FB68002283F8742003231B
:104E40000FE0FB681B68DA69BB681340BA689A42D6
:104E50000CBF01230023DBB21A46FB799A4291D0A2
:104E6000002318461037BD4680BD80B485B000AF22
:104E700078604FF43F43FB607B68B3F840309AB2F0
:104E8000FB689BB2DB439BB213409AB27B68A3F8EA
:104E90004020002318461437BD465DF8047B704758
:104EA00084B080B483B000AF786007F1140080E86C
:104EB0000E007B680122A3F840207B680022A3F843
:104EC00040207B680022A3F844207B680022A3F8DE
:104ED0005020002318460C37BD465DF8047B04B013
:104EE000704780B5C4B000AF3B1D18603B461960E9
:104EF0003B461B685B78012B40F057853B461B689F
:104F00009A693B461B681B699A4205D93B461B6858
:104F10001B69C7F80C3104E03B461B689B69C7F866
:104F20000C313B461B681B7B002B2CD13B461B687E
:104F300059693B461B68DA88D7F80C319BB2381D9B
:104F4000006801F012F93B1D1B687B613B1D1B686B
:104F5000B3F850309BB21A467B6913447B613B46E1
:104F60001B681B78DA007B69134403F2024207F1E5
:104F700010031A60D7F80C319AB207F110031B68BE
:104F80001A8000F0DDBC3B461B68DB78022B40F04A
:104F900047833B461B681A6A3B461B681B699A425B
:104FA00040F2EB823B1D1A683B461B681B789B0056
:104FB00013441B889BB223F4E04323F07003A7F84B
:104FC0005A303B1D1A683B461B681B789B001A44ED
:104FD000B7F85A3043F07F4343F47F0343F401436F
:104FE00043F080039BB213803B461B681A6AD7F8D4
:104FF0000C31D21A3B461B681A623B1D1A683B46AD
:105000001B681B789B0013441B889BB203F0400372
:10501000002B00F059813B1D1B687B633B461B68DE
:105020005B78002B64D13B1D1B68FB623B1D1B683A
:10503000B3F850309BB21A46FB6A1344FB623B46FE
:105040001B681B78DA00FB6A134403F20643BB6259
:10505000D7F80C31002B12D1BB6A1B889BB223F40A
:10506000F8439AB2BB6A1A80BB6A1B889BB26FEA8C
:1050700043436FEA53439AB2BB6A1A8054E0D7F8AD
:105080000C313E2B17D8D7F80C315B08C7F8043128
:10509000D7F80C3103F00103002B04D0D7F804310A
:1050A0000133C7F80431D7F804319BB29B029AB29E
:1050B000BB6A1A8038E0D7F80C315B09C7F80431B5
:1050C000D7F80C3103F01F03002B04D1D7F80431BB
:1050D000013BC7F80431D7F804319BB29B029BB265
:1050E0006FEA43436FEA53439AB2BB6A1A801BE0EC
:1050F0003B461B685B78012B16D13B1D1B68B3F840
:1051000050309BB21A467B6B13447B633B461B6853
:105110001B78DA007B6B134403F206433B63D7F83A
:105120000C319AB23B6B1A803B461B685B89A7F82F
:105130000A313B461B685969D7F80C319BB2B7F866
:105140000A21381D006801F010F83B461B685A69B7
:10515000D7F80C311A443B461B685A613B461B6822
:105160001A6A3B461B681B699A4209D93B461B6871
:105170001A6AD7F80C31D21A3B461B681A6208E04B
:105180003B461B681B6AC7F80C313B461B68002274
:105190001A623B461B685B78002B64D13B1D1B6881
:1051A000FB613B1D1B68B3F850309BB21A46FB698C
:1051B0001344FB613B461B681B78DA00FB69134410
:1051C00003F20243BB61D7F80C31002B12D1BB694B
:1051D0001B889BB223F4F8439AB2BB691A80BB695F
:1051E0001B889BB26FEA43436FEA53439AB2BB6991
:1051F0001A8057E0D7F80C313E2B17D8D7F80C316E
:105200005B08C7F80031D7F80C3103F00103002B1D
:1052100004D0D7F800310133C7F80031D7F8003196
:105220009BB29B029AB2BB691A803BE0D7F80C3163
:105230005B09C7F80031D7F80C3103F01F03002BCE
:1052400004D1D7F80031013BC7F80031D7F800315D
:105250009BB29B029BB26FEA43436FEA53439AB2FD
:10526000BB691A801EE03B461B685B78012B19D195
:105270003B1D1B687B623B1D1B68B3F850309BB223
:105280001A467B6A13447B623B461B681B78DA0034
:105290007B6A134403F202433B62D7F80C319AB2A3
:1052A0003B6A1A803B461B681B89A7F80A313B46BC
:1052B0001B685969D7F80C319BB2B7F80A21381D21
:1052C000006800F052FF3BE33B461B685B78002B15
:1052D00064D13B1D1B68FB643B1D1B68B3F8503059
:1052E0009BB21A46FB6C1344FB643B461B681B785D
:1052F000DA00FB6C134403F20243BB64D7F80C31B1
:10530000002B12D1BB6C1B889BB223F4F8439AB2DA
:10531000BB6C1A80BB6C1B889BB26FEA43436FEA7D
:1053200053439AB2BB6C1A8057E0D7F80C313E2B2E
:1053300017D8D7F80C315B08C7F8FC30D7F80C3118
:1053400003F00103002B04D0D7F8FC300133C7F879
:10535000FC30D7F8FC309BB29B029AB2BB6C1A802F
:105360003BE0D7F80C315B09C7F8FC30D7F80C31BB
:1053700003F01F03002B04D1D7F8FC30013BC7F822
:10538000FC30D7F8FC309BB29B029BB26FEA4343E0
:105390006FEA53439AB2BB6C1A801EE03B461B680F
:1053A0005B78012B19D13B1D1B687B653B1D1B687E
:1053B000B3F850309BB21A467B6D13447B653B4675
:1053C0001B681B78DA007B6D134403F202433B65D4
:1053D000D7F80C319AB23B6D1A803B461B681B898B
:1053E000A7F80A313B461B685969D7F80C319BB2C4
:1053F000B7F80A21381D006800F0B7FE3B461B686D
:105400005A69D7F80C311A443B461B685A613B462F
:105410001B681A6A3B461B681B699A4209D93B46BE
:105420001B681A6AD7F80C31D21A3B461B681A62FD
:1054300008E03B461B681B6AC7F80C313B461B68FB
:1054400000221A623B1D1B687B643B461B685B782D
:10545000002B64D13B1D1B68FB633B1D1B68B3F82D
:1054600050309BB21A46FB6B1344FB633B461B68F0
:105470001B78DA00FB6B134403F20643BB63D7F8D7
:105480000C31002B12D1BB6B1B889BB223F4F84369
:105490009AB2BB6B1A80BB6B1B889BB26FEA43430B
:1054A0006FEA53439AB2BB6B1A8054E0D7F80C31C1
:1054B0003E2B17D8D7F80C315B08C7F8F830D7F86F
:1054C0000C3103F00103002B04D0D7F8F83001337E
:1054D000C7F8F830D7F8F8309BB29B029AB2BB6B92
:1054E0001A8038E0D7F80C315B09C7F8F830D7F8E4
:1054F0000C3103F01F03002B04D1D7F8F830013B27
:10550000C7F8F830D7F8F8309BB29B029BB26FEA2D
:1055100043436FEA53439AB2BB6B1A801BE03B468E
:105520001B685B78012B16D13B1D1B68B3F850300C
:105530009BB21A467B6C13447B643B461B681B780A
:10554000DA007B6C134403F206433B64D7F80C315A
:105550009AB23B6C1A803B461B685B89A7F80A31FC
:105560003B461B685969D7F80C319BB2B7F80A2142
:10557000381D006800F0F9FDE2E13B461B681B6A3C
:10558000C7F80C313B1D1A683B461B681B789B0013
:1055900013441B889BB223F4E24323F07003A7F863
:1055A00066303B1D1A683B461B681B789B001A44FB
:1055B000B7F8663043F07F4343F47F0343F400437E
:1055C00043F080039BB213803B1D1B683B663B1D71
:1055D0001B68B3F850309BB21A463B6E13443B66CF
:1055E0003B461B681B78DA003B6E134403F2024310
:1055F000FB65D7F80C319AB2FB6D1A803B461B68ED
:105600001B89A7F80A313B461B685969D7F80C314A
:105610009BB2B7F80A21381D006800F0A6FD8FE1A3
:105620003B1D1A683B461B681B789B0013441B8874
:105630009BB203F04003002B00F08F803B1D1B68E2
:10564000BB673B461B685B78002B64D13B1D1B6826
:105650003B673B1D1B68B3F850309BB21A463B6F4B
:1056600013443B673B461B681B78DA003B6F1344CF
:1056700003F20643FB66D7F80C31002B12D1FB6E08
:105680001B889BB223F4F8439AB2FB6E1A80FB6E20
:105690001B889BB26FEA43436FEA53439AB2FB6E97
:1056A0001A8054E0D7F80C313E2B17D8D7F80C31BC
:1056B0005B08C7F8F430D7F80C3103F00103002B76
:1056C00004D0D7F8F4300133C7F8F430D7F8F43009
:1056D0009BB29B029AB2FB6E1A8038E0D7F80C316D
:1056E0005B09C7F8F430D7F80C3103F01F03002B27
:1056F00004D1D7F8F430013BC7F8F430D7F8F430D0
:105700009BB29B029BB26FEA43436FEA53439AB248
:10571000FB6E1A801BE03B461B685B78012B16D1A1
:105720003B1D1B68B3F850309BB21A46BB6F134445
:10573000BB673B461B681B78DA00BB6F134403F260
:1057400006437B67D7F80C319AB27B6F1A803B46D1
:105750001B685B89A7F80A3197E03B461B685B78BA
:10576000002B68D13B1D1B68C7F880303B1D1B68B0
:10577000B3F850309BB21A46D7F880301344C7F8BC
:1057800080303B461B681B78DA00D7F88030134422
:1057900003F20243FB67D7F80C31002B12D1FB6FE9
:1057A0001B889BB223F4F8439AB2FB6F1A80FB6FFD
:1057B0001B889BB26FEA43436FEA53439AB2FB6F75
:1057C0001A805DE0D7F80C313E2B17D8D7F80C3192
:1057D0005B08C7F8F030D7F80C3103F00103002B59
:1057E00004D0D7F8F0300133C7F8F030D7F8F030F4
:1057F0009BB29B029AB2FB6F1A8041E0D7F80C3142
:105800005B09C7F8F030D7F80C3103F01F03002B09
:1058100004D1D7F8F030013BC7F8F030D7F8F030BA
:105820009BB29B029BB26FEA43436FEA53439AB227
:10583000FB6F1A8024E03B461B685B78012B1FD16D
:105840003B1D1B68C7F888303B1D1B68B3F8503000
:105850009BB21A46D7F888301344C7F888303B46C5
:105860001B681B78DA00D7F88830134403F2024330
:10587000C7F88430D7F80C319AB2D7F884301A8040
:105880003B461B681B89A7F80A313B461B685969D0
:10589000D7F80C319BB2B7F80A21381D006800F028
:1058A00064FC3B461B685B78002B22D13B1D1A68C9
:1058B0003B461B681B789B0013441B889BB223F458
:1058C000E04323F07003A7F868303B1D1A683B469D
:1058D0001B681B789B001A44B7F8683043F07F437D
:1058E00043F47F0343F4004343F0C0039BB21380AF
:1058F00026E03B461B685B78012B21D13B1D1A68D3
:105900003B461B681B789B0013441B889BB223F407
:10591000E04323F07003A7F86A303B1D1A683B464A
:105920001B681B789B001A44B7F86A3043F07F432A
:1059300043F47F0343F4404343F080039BB213805E
:105940003B1D1A683B461B681B789B0013441B8851
:105950009BB207F10E0223F4E04323F040031380CF
:1059600007F10E0307F10E02128882F010021A806E
:1059700007F10E0307F10E02128882F020021A804E
:105980003B1D1A683B461B681B789B001A4407F1B5
:105990000E031B8843F07F4343F47F0343F400432B
:1059A00043F080039BB21380B5E33B461B681B7B2F
:1059B000002B40F090803B461B689A693B461B6871
:1059C0001B699A420ED93B461B681B69C7F80C310C
:1059D0003B461B689A69D7F80C31D21A3B461B68C4
:1059E0009A6108E03B461B689B69C7F80C313B464F
:1059F0001B6800229A613B1D1B68C7F894303B1D51
:105A00001B68B3F850309BB21A46D7F89430134451
:105A1000C7F894303B461B681B78DA00D7F89430FF
:105A2000134403F20643C7F89030D7F80C31002B2B
:105A300016D1D7F890301B889BB223F4F8439AB262
:105A4000D7F890301A80D7F890301B889BB26FEA55
:105A500043436FEA53439AB2D7F890301A802CE34D
:105A6000D7F80C313E2B18D8D7F80C315B08C7F8A3
:105A7000EC30D7F80C3103F00103002B04D0D7F839
:105A8000EC300133C7F8EC30D7F8EC309BB29B0216
:105A90009AB2D7F890301A800FE3D7F80C315B092F
:105AA000C7F8EC30D7F80C3103F01F03002B04D1FA
:105AB000D7F8EC30013BC7F8EC30D7F8EC309BB2AC
:105AC0009B029BB26FEA43436FEA53439AB2D7F803
:105AD00090301A80F1E23B461B68DB78022B40F0E5
